:1000000002308A003F2A0000FF00030E8301A10096
:100010007F08A0000A08AB008A01A00E0408A20015
:100020007708A3007808A4007908A5007A08A6003C
:1000300003170D080313A70003170F080313A800E5
:1000400003170C080313A90003170E080313AA00D3
:10005000831383128C308400001C30280C18512824
:10006000220884002308F7002408F8002508F90076
:100070002608FA00270803178D0003132808031722
:100080008F000313290803178C0003132A08031792
:100090008E0003132B088A00210E8300FF0E7F0EB3
:1000A00009008A115B280A108A100A118207283475
:1000B0000C3401340634AC0A0319AD0A33082D029E
:1000C000031C7328031D68282C08320203187328A8
:1000D000B40803196D2800306E280130B400341CB8
:1000E0008512341885160C108A113028D332ED345D
:1000F000F032F2346F326F1DA012CC3AA03673008A
:100100004130840083130008031994280130F8005B
:10011000F701F70B8928F80B88284A30F700F70B0E
:100120008F289228800B8628080048080F39F7008E
:10013000F030060577048600000006179F28061396
:10014000080006120F308316860083128616000000
:100150000617000006080F39C8000613000006172E
:10016000000006080F39C7000613831686018312A4
:10017000480EF700F030F70577084704F8007808D4
:10018000C700C71BA228451C06124518061600000A
:10019000861200000613460EC7000F30C705470839
:1001A000C800952046080F39C700C80095200800F0
:1001B0008316860183120612861206130F30C100C1
:1001C00080200130B7003708033C031CEF280330C0
:1001D000C80095200530C1008020B70AE32802300E
:1001E000C8009520B7013708033C031C03293708D2
:1001F0005320B800C5013808C600A1200530C10051
:100200008020B70AF3288A11732A83168601831285
:100210000612861206130F30C10080200130B7008D
:100220003708033C031C1C290330C8009520053007
:10023000C1008020B70A10290230C80095208A1119
:10024000742A1030BB00F701FA01B80CB70C031C7C
:100250002F293908F7070318FA0A3A08FA07FA0C9F
:10026000F70CF90CF80CBB0B25298A11852A4008DC
:100270000C3A03194B29063A03195329023A031978
:100280006929013A03196E29043A03197329063AB8
:10029000031978297D29C5010130C600A12002304B
:1002A000C100802082290130C1000230C200420B0F
:1002B0005A295D294030C3005E29C3010130410243
:1002C000C30743088038C400C5014408C600A12004
:1002D0008229C5011030C600A1208229C501143031
:1002E000C600A1208229C5011830C600A12082299C
:1002F000C5011C30C600A12082290130C50040087C
:10030000C600A12008000B08B8008B138316031742
:100310008C170C140000000083120313B81B8B17FA
:100320000318BA2903170C087F390313B800031701
:100330000D080313B90003170F080313BA00380898
:10034000C0003721390803178D0003133A0803173B
:100350008F0003130B08BB008B13831603178C1736
:100360000C140000000083120313BB1B8B17B70B88
:10037000BA29D92903170C0D0E0D7F390313B800C4
:1003800003170D080313B90003170F080313BA006E
:100390003808C0003721390803178D0003133A08C5
:1003A00003178F008D0A03198F0A03100313B70B6D
:1003B00083298A11932ABF010408BE003F10831BC2
:1003C0003F14380EF038BA00BA07E23EBB00323EA6
:1003D000BD0038080F39BB07BB07BD07E93EBC00AD
:1003E000BC07BC07370E0F39BC07BD07BC0DBD0DE0
:1003F000BD09BD0D37080F39BD07BA0D0730B9006B
:100400000A30BD07BC03031C012ABC07BB03031C45
:10041000052ABB07BA03031C092ABA07B903031C40
:100420000D2A39308400831307303E053E138407BC
:100430003D30040203193E170008F700031D282A67
:100440003E1B282A3E1A3A2ABE19282A20302B2A77
:10045000BE153E123030F707B8010408B700381057
:10046000831B38147708C0003721370884008313B2
:1004700038188317840A3E1F182A8A119A2A0308FB
:100480001F398300623083168F000F088312AD017D
:10049000AC01AF01AE01B001B101B301B201B401D1
:1004A000B601B50183161F129F121B0880399B00ED
:1004B00007309C0083130108C039013881001F12E6
:1004C0009F121B08803901389B001F1383121F13D2
:1004D0009F1383169F1783121F1483160C14C030AA
:1004E00083128B04D82805291F151F19752A831616
:1004F0001E088312B5001E08B600B8010A30B70006
:100500003608BA003508B90021297908B3007808FF
:10051000B200763003178D0000308F0003100D30CD
:100520000313B7008329103084003308B800320861
:10053000B700DB292030C00037216D30C0003721E3
:0A0540007330C0003721742A6300F5
:04400E00303FFF3F01
:00000001FF
;PIC16F88
;CRC=B87C  CREATED="26-abr.-21 19:59"
